{
  "contractName": "Staking",
  "abi": [
    {
      "inputs": [
        {
          "internalType": "address",
          "name": "_stakingToken",
          "type": "address"
        }
      ],
      "stateMutability": "nonpayable",
      "type": "constructor"
    },
    {
      "anonymous": false,
      "inputs": [
        {
          "indexed": true,
          "internalType": "address",
          "name": "previousOwner",
          "type": "address"
        },
        {
          "indexed": true,
          "internalType": "address",
          "name": "newOwner",
          "type": "address"
        }
      ],
      "name": "OwnershipTransferred",
      "type": "event"
    },
    {
      "anonymous": false,
      "inputs": [
        {
          "indexed": true,
          "internalType": "address",
          "name": "account",
          "type": "address"
        },
        {
          "indexed": false,
          "internalType": "uint256",
          "name": "reward",
          "type": "uint256"
        }
      ],
      "name": "RewardClaimed",
      "type": "event"
    },
    {
      "anonymous": false,
      "inputs": [
        {
          "indexed": true,
          "internalType": "address",
          "name": "account",
          "type": "address"
        },
        {
          "indexed": false,
          "internalType": "uint256",
          "name": "amount",
          "type": "uint256"
        }
      ],
      "name": "StakeDeposited",
      "type": "event"
    },
    {
      "anonymous": false,
      "inputs": [
        {
          "indexed": true,
          "internalType": "address",
          "name": "account",
          "type": "address"
        },
        {
          "indexed": false,
          "internalType": "uint256",
          "name": "amount",
          "type": "uint256"
        }
      ],
      "name": "WithdrawExecuted",
      "type": "event"
    },
    {
      "inputs": [
        {
          "internalType": "address",
          "name": "",
          "type": "address"
        }
      ],
      "name": "_stakeDeposits",
      "outputs": [
        {
          "internalType": "uint256",
          "name": "amount",
          "type": "uint256"
        },
        {
          "internalType": "uint256",
          "name": "rewards",
          "type": "uint256"
        },
        {
          "internalType": "bool",
          "name": "exists",
          "type": "bool"
        }
      ],
      "stateMutability": "view",
      "type": "function",
      "constant": true
    },
    {
      "inputs": [],
      "name": "currentTotalStake",
      "outputs": [
        {
          "internalType": "uint256",
          "name": "",
          "type": "uint256"
        }
      ],
      "stateMutability": "view",
      "type": "function",
      "constant": true
    },
    {
      "inputs": [],
      "name": "owner",
      "outputs": [
        {
          "internalType": "address",
          "name": "",
          "type": "address"
        }
      ],
      "stateMutability": "view",
      "type": "function",
      "constant": true
    },
    {
      "inputs": [],
      "name": "renounceOwnership",
      "outputs": [],
      "stateMutability": "nonpayable",
      "type": "function"
    },
    {
      "inputs": [],
      "name": "token",
      "outputs": [
        {
          "internalType": "contract IERC20",
          "name": "",
          "type": "address"
        }
      ],
      "stateMutability": "view",
      "type": "function",
      "constant": true
    },
    {
      "inputs": [],
      "name": "totalAdminCommission",
      "outputs": [
        {
          "internalType": "uint256",
          "name": "",
          "type": "uint256"
        }
      ],
      "stateMutability": "view",
      "type": "function",
      "constant": true
    },
    {
      "inputs": [
        {
          "internalType": "address",
          "name": "newOwner",
          "type": "address"
        }
      ],
      "name": "transferOwnership",
      "outputs": [],
      "stateMutability": "nonpayable",
      "type": "function"
    },
    {
      "inputs": [
        {
          "internalType": "address",
          "name": "_token",
          "type": "address"
        }
      ],
      "name": "setTokenAddress",
      "outputs": [],
      "stateMutability": "nonpayable",
      "type": "function"
    },
    {
      "inputs": [
        {
          "internalType": "uint256",
          "name": "_amount",
          "type": "uint256"
        }
      ],
      "name": "stake",
      "outputs": [],
      "stateMutability": "nonpayable",
      "type": "function"
    },
    {
      "inputs": [
        {
          "internalType": "address",
          "name": "_user",
          "type": "address"
        }
      ],
      "name": "claimRewards",
      "outputs": [],
      "stateMutability": "nonpayable",
      "type": "function"
    },
    {
      "inputs": [
        {
          "internalType": "uint256",
          "name": "_withdrawAmount",
          "type": "uint256"
        }
      ],
      "name": "unstake",
      "outputs": [],
      "stateMutability": "nonpayable",
      "type": "function"
    },
    {
      "inputs": [],
      "name": "getAdminCommissionDetails",
      "outputs": [
        {
          "internalType": "uint256",
          "name": "adminCommission",
          "type": "uint256"
        }
      ],
      "stateMutability": "view",
      "type": "function",
      "constant": true
    },
    {
      "inputs": [
        {
          "internalType": "address",
          "name": "_user",
          "type": "address"
        }
      ],
      "name": "checkUserStakerStatus",
      "outputs": [],
      "stateMutability": "view",
      "type": "function",
      "constant": true
    },
    {
      "inputs": [
        {
          "internalType": "address",
          "name": "account",
          "type": "address"
        }
      ],
      "name": "getStakeDetails",
      "outputs": [
        {
          "internalType": "uint256",
          "name": "stakeDeposit",
          "type": "uint256"
        },
        {
          "internalType": "uint256",
          "name": "rewards",
          "type": "uint256"
        }
      ],
      "stateMutability": "view",
      "type": "function",
      "constant": true
    }
  ],
  "bytecode": "0x60806040523480156200001157600080fd5b5060405162001e1b38038062001e1b833981810160405281019062000037919062000247565b620000576200004b6200011160201b60201c565b6200011960201b60201c565b600073ffffffffffffffffffffffffffffffffffffffff168173ffffffffffffffffffffffffffffffffffffffff1603620000c9576040517f08c379a0000000000000000000000000000000000000000000000000000000008152600401620000c090620002da565b60405180910390fd5b80600160006101000a81548173ffffffffffffffffffffffffffffffffffffffff021916908373ffffffffffffffffffffffffffffffffffffffff16021790555050620002fc565b600033905090565b60008060009054906101000a900473ffffffffffffffffffffffffffffffffffffffff169050816000806101000a81548173ffffffffffffffffffffffffffffffffffffffff021916908373ffffffffffffffffffffffffffffffffffffffff1602179055508173ffffffffffffffffffffffffffffffffffffffff168173ffffffffffffffffffffffffffffffffffffffff167f8be0079c531659141344cd1fd0a4f28419497f9722a3daafe3b4186f6b6457e060405160405180910390a35050565b600080fd5b600073ffffffffffffffffffffffffffffffffffffffff82169050919050565b60006200020f82620001e2565b9050919050565b620002218162000202565b81146200022d57600080fd5b50565b600081519050620002418162000216565b92915050565b60006020828403121562000260576200025f620001dd565b5b6000620002708482850162000230565b91505092915050565b600082825260208201905092915050565b7f5374616b696e673a20496e76616c696420746f6b656e20616464726573730000600082015250565b6000620002c2601e8362000279565b9150620002cf826200028a565b602082019050919050565b60006020820190508181036000830152620002f581620002b3565b9050919050565b611b0f806200030c6000396000f3fe608060405234801561001057600080fd5b50600436106100ea5760003560e01c8063ce4843e91161008c578063f2fde38b11610066578063f2fde38b146101fd578063f41322ac14610219578063f67281251461024a578063fc0c546a1461027c576100ea565b8063ce4843e9146101a5578063ef3f6df1146101c3578063ef5cfb8c146101e1576100ea565b806381520691116100c857806381520691146101315780638da5cb5b1461014d578063a694fc3a1461016b578063c727b2dd14610187576100ea565b806326a4e8d2146100ef5780632e17de781461010b578063715018a614610127575b600080fd5b61010960048036038101906101049190611097565b61029a565b005b610125600480360381019061012091906110fa565b610355565b005b61012f6106ab565b005b61014b60048036038101906101469190611097565b6106bf565b005b610155610784565b6040516101629190611136565b60405180910390f35b610185600480360381019061018091906110fa565b6107ad565b005b61018f6109fb565b60405161019c9190611160565b60405180910390f35b6101ad610a05565b6040516101ba9190611160565b60405180910390f35b6101cb610a0b565b6040516101d89190611160565b60405180910390f35b6101fb60048036038101906101f69190611097565b610a11565b005b61021760048036038101906102129190611097565b610c67565b005b610233600480360381019061022e9190611097565b610cea565b60405161024192919061117b565b60405180910390f35b610264600480360381019061025f9190611097565b610e60565b604051610273939291906111bf565b60405180910390f35b610284610e97565b6040516102919190611255565b60405180910390f35b6102a2610ebd565b600073ffffffffffffffffffffffffffffffffffffffff168173ffffffffffffffffffffffffffffffffffffffff1603610311576040517f08c379a0000000000000000000000000000000000000000000000000000000008152600401610308906112cd565b60405180910390fd5b80600160006101000a81548173ffffffffffffffffffffffffffffffffffffffff021916908373ffffffffffffffffffffffffffffffffffffffff16021790555050565b6000600460003373ffffffffffffffffffffffffffffffffffffffff1673ffffffffffffffffffffffffffffffffffffffff16815260200190815260200160002060405180606001604052908160008201548152602001600182015481526020016002820160009054906101000a900460ff16151515158152505090506000816000015103610419576040517f08c379a00000000000000000000000000000000000000000000000000000000081526004016104109061135f565b60405180910390fd5b8181600001511015610460576040517f08c379a0000000000000000000000000000000000000000000000000000000008152600401610457906113cb565b60405180910390fd5b81816000015111156105055781600460003373ffffffffffffffffffffffffffffffffffffffff1673ffffffffffffffffffffffffffffffffffffffff168152602001908152602001600020600001546104ba919061141a565b600460003373ffffffffffffffffffffffffffffffffffffffff1673ffffffffffffffffffffffffffffffffffffffff16815260200190815260200160002060000181905550610561565b6000600460003373ffffffffffffffffffffffffffffffffffffffff1673ffffffffffffffffffffffffffffffffffffffff16815260200190815260200160002060020160006101000a81548160ff0219169083151502179055505b8160026000828254610573919061141a565b92505081905550600160009054906101000a900473ffffffffffffffffffffffffffffffffffffffff1673ffffffffffffffffffffffffffffffffffffffff1663a9059cbb33846040518363ffffffff1660e01b81526004016105d792919061144e565b6020604051808303816000875af11580156105f6573d6000803e3d6000fd5b505050506040513d601f19601f8201168201806040525081019061061a91906114a3565b610659576040517f08c379a000000000000000000000000000000000000000000000000000000000815260040161065090611568565b60405180910390fd5b3373ffffffffffffffffffffffffffffffffffffffff167f7b2a72f0889ae9bb89e8ee7ec3e7c465552d1b76d51df9b0426d0e4e7f39528f8360405161069f9190611160565b60405180910390a25050565b6106b3610ebd565b6106bd6000610f3b565b565b6000600460008373ffffffffffffffffffffffffffffffffffffffff1673ffffffffffffffffffffffffffffffffffffffff16815260200190815260200160002060405180606001604052908160008201548152602001600182015481526020016002820160009054906101000a900460ff16151515158152505090508060400151610780576040517f08c379a0000000000000000000000000000000000000000000000000000000008152600401610777906115d4565b60405180910390fd5b5050565b60008060009054906101000a900473ffffffffffffffffffffffffffffffffffffffff16905090565b600081036107f0576040517f08c379a00000000000000000000000000000000000000000000000000000000081526004016107e790611666565b60405180910390fd5b6000600460003373ffffffffffffffffffffffffffffffffffffffff1673ffffffffffffffffffffffffffffffffffffffff1681526020019081526020016000209050818160000160008282546108479190611686565b9250508190555060018160020160006101000a81548160ff021916908315150217905550816002600082825461087d9190611686565b925050819055506108c78160405180606001604052908160008201548152602001600182015481526020016002820160009054906101000a900460ff161515151581525050610fff565b50600160009054906101000a900473ffffffffffffffffffffffffffffffffffffffff1673ffffffffffffffffffffffffffffffffffffffff166323b872dd3330856040518463ffffffff1660e01b8152600401610927939291906116ba565b6020604051808303816000875af1158015610946573d6000803e3d6000fd5b505050506040513d601f19601f8201168201806040525081019061096a91906114a3565b6109a9576040517f08c379a00000000000000000000000000000000000000000000000000000000081526004016109a090611763565b60405180910390fd5b3373ffffffffffffffffffffffffffffffffffffffff167f0a7bb2e28cc4698aac06db79cf9163bfcc20719286cf59fa7d492ceda1b8edc2836040516109ef9190611160565b60405180910390a25050565b6000600354905090565b60025481565b60035481565b6000600460008373ffffffffffffffffffffffffffffffffffffffff1673ffffffffffffffffffffffffffffffffffffffff16815260200190815260200160002060405180606001604052908160008201548152602001600182015481526020016002820160009054906101000a900460ff16151515158152505090508060400151610ad2576040517f08c379a0000000000000000000000000000000000000000000000000000000008152600401610ac9906117f5565b60405180910390fd5b6000816020015103610b19576040517f08c379a0000000000000000000000000000000000000000000000000000000008152600401610b1090611887565b60405180910390fd5b6000606460028360200151610b2e91906118a7565b610b389190611918565b90508060036000828254610b4c9190611686565b925050819055506000818360200151610b65919061141a565b90506000836020018181525050600160009054906101000a900473ffffffffffffffffffffffffffffffffffffffff1673ffffffffffffffffffffffffffffffffffffffff1663a9059cbb85836040518363ffffffff1660e01b8152600401610bcf92919061144e565b6020604051808303816000875af1158015610bee573d6000803e3d6000fd5b505050506040513d601f19601f82011682018060405250810190610c1291906114a3565b508373ffffffffffffffffffffffffffffffffffffffff167f106f923f993c2149d49b4255ff723acafa1f2d94393f561d3eda32ae348f724182604051610c599190611160565b60405180910390a250505050565b610c6f610ebd565b600073ffffffffffffffffffffffffffffffffffffffff168173ffffffffffffffffffffffffffffffffffffffff1603610cde576040517f08c379a0000000000000000000000000000000000000000000000000000000008152600401610cd5906119bb565b60405180910390fd5b610ce781610f3b565b50565b600080600460008473ffffffffffffffffffffffffffffffffffffffff1673ffffffffffffffffffffffffffffffffffffffff16815260200190815260200160002060020160009054906101000a900460ff168015610d8c57506000600460008573ffffffffffffffffffffffffffffffffffffffff1673ffffffffffffffffffffffffffffffffffffffff1681526020019081526020016000206000015414155b610dcb576040517f08c379a0000000000000000000000000000000000000000000000000000000008152600401610dc290611a4d565b60405180910390fd5b6000600460008573ffffffffffffffffffffffffffffffffffffffff1673ffffffffffffffffffffffffffffffffffffffff16815260200190815260200160002060405180606001604052908160008201548152602001600182015481526020016002820160009054906101000a900460ff16151515158152505090508060000151610e5682610fff565b9250925050915091565b60046020528060005260406000206000915090508060000154908060010154908060020160009054906101000a900460ff16905083565b600160009054906101000a900473ffffffffffffffffffffffffffffffffffffffff1681565b610ec561102c565b73ffffffffffffffffffffffffffffffffffffffff16610ee3610784565b73ffffffffffffffffffffffffffffffffffffffff1614610f39576040517f08c379a0000000000000000000000000000000000000000000000000000000008152600401610f3090611ab9565b60405180910390fd5b565b60008060009054906101000a900473ffffffffffffffffffffffffffffffffffffffff169050816000806101000a81548173ffffffffffffffffffffffffffffffffffffffff021916908373ffffffffffffffffffffffffffffffffffffffff1602179055508173ffffffffffffffffffffffffffffffffffffffff168173ffffffffffffffffffffffffffffffffffffffff167f8be0079c531659141344cd1fd0a4f28419497f9722a3daafe3b4186f6b6457e060405160405180910390a35050565b600080606483600001516110139190611918565b9050808360200181815250508260200151915050919050565b600033905090565b600080fd5b600073ffffffffffffffffffffffffffffffffffffffff82169050919050565b600061106482611039565b9050919050565b61107481611059565b811461107f57600080fd5b50565b6000813590506110918161106b565b92915050565b6000602082840312156110ad576110ac611034565b5b60006110bb84828501611082565b91505092915050565b6000819050919050565b6110d7816110c4565b81146110e257600080fd5b50565b6000813590506110f4816110ce565b92915050565b6000602082840312156111105761110f611034565b5b600061111e848285016110e5565b91505092915050565b61113081611059565b82525050565b600060208201905061114b6000830184611127565b92915050565b61115a816110c4565b82525050565b60006020820190506111756000830184611151565b92915050565b60006040820190506111906000830185611151565b61119d6020830184611151565b9392505050565b60008115159050919050565b6111b9816111a4565b82525050565b60006060820190506111d46000830186611151565b6111e16020830185611151565b6111ee60408301846111b0565b949350505050565b6000819050919050565b600061121b61121661121184611039565b6111f6565b611039565b9050919050565b600061122d82611200565b9050919050565b600061123f82611222565b9050919050565b61124f81611234565b82525050565b600060208201905061126a6000830184611246565b92915050565b600082825260208201905092915050565b7f5374616b696e673a20496e76616c696420746f6b656e20616464726573730000600082015250565b60006112b7601e83611270565b91506112c282611281565b602082019050919050565b600060208201905081810360008301526112e6816112aa565b9050919050565b7f5374616b696e673a205468657265206973206e6f207374616b65206465706f7360008201527f697420666f722074686973206163636f756e7400000000000000000000000000602082015250565b6000611349603383611270565b9150611354826112ed565b604082019050919050565b600060208201905081810360008301526113788161133c565b9050919050565b7f5374616b696e673a20496e76616c696420776974686472617720616d6f756e74600082015250565b60006113b5602083611270565b91506113c08261137f565b602082019050919050565b600060208201905081810360008301526113e4816113a8565b9050919050565b7f4e487b7100000000000000000000000000000000000000000000000000000000600052601160045260246000fd5b6000611425826110c4565b9150611430836110c4565b9250828203905081811115611448576114476113eb565b5b92915050565b60006040820190506114636000830185611127565b6114706020830184611151565b9392505050565b611480816111a4565b811461148b57600080fd5b50565b60008151905061149d81611477565b92915050565b6000602082840312156114b9576114b8611034565b5b60006114c78482850161148e565b91505092915050565b7f5374616b696e673a20536f6d657468696e672077656e742077726f6e6720776860008201527f696c65207472616e7366657272696e6720796f757220696e697469616c20646560208201527f706f736974000000000000000000000000000000000000000000000000000000604082015250565b6000611552604583611270565b915061155d826114d0565b606082019050919050565b6000602082019050818103600083015261158181611545565b9050919050565b7f5374616b696e673a2055736572206e6f74205374616b65720000000000000000600082015250565b60006115be601883611270565b91506115c982611588565b602082019050919050565b600060208201905081810360008301526115ed816115b1565b9050919050565b7f5374616b696e673a20546865207374616b65206465706f73697420686173207460008201527f6f206265206c6172676572207468616e20300000000000000000000000000000602082015250565b6000611650603283611270565b915061165b826115f4565b604082019050919050565b6000602082019050818103600083015261167f81611643565b9050919050565b6000611691826110c4565b915061169c836110c4565b92508282019050808211156116b4576116b36113eb565b5b92915050565b60006060820190506116cf6000830186611127565b6116dc6020830185611127565b6116e96040830184611151565b949350505050565b7f5374616b696e673a20536f6d657468696e672077656e742077726f6e6720647560008201527f72696e672074686520746f6b656e207472616e73666572000000000000000000602082015250565b600061174d603783611270565b9150611758826116f1565b604082019050919050565b6000602082019050818103600083015261177c81611740565b9050919050565b7f5374616b696e673a2054686973206163636f756e7420646f65736e277420686160008201527f7665207374616b65206465706f73697473000000000000000000000000000000602082015250565b60006117df603183611270565b91506117ea82611783565b604082019050919050565b6000602082019050818103600083015261180e816117d2565b9050919050565b7f5374616b696e673a2052657761726420746f6b656e7320616c7265616479206360008201527f6c61696d65640000000000000000000000000000000000000000000000000000602082015250565b6000611871602683611270565b915061187c82611815565b604082019050919050565b600060208201905081810360008301526118a081611864565b9050919050565b60006118b2826110c4565b91506118bd836110c4565b92508282026118cb816110c4565b915082820484148315176118e2576118e16113eb565b5b5092915050565b7f4e487b7100000000000000000000000000000000000000000000000000000000600052601260045260246000fd5b6000611923826110c4565b915061192e836110c4565b92508261193e5761193d6118e9565b5b828204905092915050565b7f4f776e61626c653a206e6577206f776e657220697320746865207a65726f206160008201527f6464726573730000000000000000000000000000000000000000000000000000602082015250565b60006119a5602683611270565b91506119b082611949565b604082019050919050565b600060208201905081810360008301526119d481611998565b9050919050565b7f5374616b696e673a2054686973206163636f756e7420646f65736e277420686160008201527f76652061207374616b65206465706f7369740000000000000000000000000000602082015250565b6000611a37603283611270565b9150611a42826119db565b604082019050919050565b60006020820190508181036000830152611a6681611a2a565b9050919050565b7f4f776e61626c653a2063616c6c6572206973206e6f7420746865206f776e6572600082015250565b6000611aa3602083611270565b9150611aae82611a6d565b602082019050919050565b60006020820190508181036000830152611ad281611a96565b905091905056fea2646970667358221220e6e84ad0679a47cb8077ae6d7868350a71f0bda6b4e4877d00911f5c5e094d0164736f6c63430008110033",
  "immutableReferences": {},
  "source": "// SPDX-License-Identifier: MIT\r\npragma solidity 0.8.17;\r\n\r\nimport \"@openzeppelin/contracts/token/ERC20/IERC20.sol\";\r\nimport \"@openzeppelin/contracts/access/Ownable.sol\";\r\n\r\n//import \"@openzeppelin/contracts/utils/math/Math.sol\";\r\n\r\ncontract Staking is Ownable {\r\n    /* Contract state variables */\r\n    IERC20 public token; //staking token\r\n    uint256 public currentTotalStake; //total stakes in the platform\r\n    uint256 public totalAdminCommission; //total commissions earned by the admin\r\n\r\n    /* Struct Declarations */\r\n    struct StakeDeposit {\r\n        uint256 amount;\r\n        uint256 rewards;\r\n        bool exists;\r\n    }\r\n\r\n    /* Mappings */\r\n    mapping(address => StakeDeposit) public _stakeDeposits;\r\n\r\n    /* Events */\r\n    event StakeDeposited(address indexed account, uint256 amount);\r\n    event WithdrawExecuted(address indexed account, uint256 amount);\r\n    event RewardClaimed(address indexed account, uint256 reward);\r\n\r\n    /* Constructor */\r\n    constructor(address _stakingToken) {\r\n        require(_stakingToken != address(0), \"Staking: Invalid token address\");\r\n\r\n        token = IERC20(_stakingToken);\r\n    }\r\n\r\n    /* Owner Functions */\r\n\r\n    /**\r\n     * @notice This function is used to set staking token address\r\n     * @dev only the owner can call this function\r\n     * @param _token Address of the staking token\r\n     */\r\n    function setTokenAddress(address _token) external onlyOwner {\r\n        require(_token != address(0), \"Staking: Invalid token address\");\r\n        token = IERC20(_token);\r\n    }\r\n\r\n    /* Staking */\r\n\r\n    /**\r\n     * @notice This function is used to deposit and stake the token\r\n     * @param _amount Amount of staking token the user wish to stake\r\n     */\r\n    function stake(uint256 _amount) external {\r\n        require(\r\n            _amount != 0,\r\n            \"Staking: The stake deposit has to be larger than 0\"\r\n        );\r\n        StakeDeposit storage stakeDeposit = _stakeDeposits[msg.sender];\r\n\r\n        stakeDeposit.amount += _amount;\r\n        stakeDeposit.exists = true;\r\n        currentTotalStake += _amount;\r\n\r\n        calculateRewards(stakeDeposit);\r\n\r\n        // Transfer the Tokens to this contract\r\n        require(\r\n            token.transferFrom(msg.sender, address(this), _amount),\r\n            \"Staking: Something went wrong during the token transfer\"\r\n        );\r\n\r\n        emit StakeDeposited(msg.sender, _amount);\r\n    }\r\n\r\n    /**\r\n     * @notice This function is used to claim rewards of staked tokens\r\n     * @param stakeDeposit address of the staker\r\n     */\r\n    function calculateRewards(\r\n        StakeDeposit memory stakeDeposit\r\n    ) private pure returns (uint256) {\r\n        uint256 reward = stakeDeposit.amount / 100;\r\n        stakeDeposit.rewards = reward;\r\n        return stakeDeposit.rewards;\r\n    }\r\n\r\n    /**\r\n     * @notice This function is used to claim rewards of staked tokens\r\n     */\r\n    function claimRewards(address _user) external {\r\n        StakeDeposit memory stakeDeposit = _stakeDeposits[_user];\r\n        require(\r\n            stakeDeposit.exists,\r\n            \"Staking: This account doesn't have stake deposits\"\r\n        );\r\n        require(\r\n            stakeDeposit.rewards != 0,\r\n            \"Staking: Reward tokens already claimed\"\r\n        );\r\n\r\n        uint256 adminFee = (stakeDeposit.rewards * 2) / 100;\r\n        totalAdminCommission += adminFee;\r\n        uint256 tokenToTransfer = stakeDeposit.rewards - adminFee;\r\n        stakeDeposit.rewards = 0;\r\n\r\n        token.transfer(_user, tokenToTransfer);\r\n        emit RewardClaimed(_user, tokenToTransfer);\r\n    }\r\n\r\n    /**\r\n     * @notice This function is used to execute withdrawal of staked tokens\r\n     * @param _withdrawAmount Amount of staking token the user wish to unstake\r\n     */\r\n    function unstake(uint256 _withdrawAmount) external {\r\n        StakeDeposit memory stakeDeposit = _stakeDeposits[msg.sender];\r\n\r\n        require(\r\n            stakeDeposit.amount != 0,\r\n            \"Staking: There is no stake deposit for this account\"\r\n        );\r\n\r\n        require(\r\n            stakeDeposit.amount >= _withdrawAmount,\r\n            \"Staking: Invalid withdraw amount\"\r\n        );\r\n        if (stakeDeposit.amount > _withdrawAmount) {\r\n            _stakeDeposits[msg.sender].amount =\r\n                (_stakeDeposits[msg.sender].amount) -\r\n                (_withdrawAmount);\r\n        } else {\r\n            _stakeDeposits[msg.sender].exists = false;\r\n        }\r\n        currentTotalStake -= _withdrawAmount;\r\n\r\n        require(\r\n            token.transfer(msg.sender, _withdrawAmount),\r\n            \"Staking: Something went wrong while transferring your initial deposit\"\r\n        );\r\n\r\n        //emit WithdrawExecuted(msg.sender, amount);\r\n        emit WithdrawExecuted(msg.sender, _withdrawAmount);\r\n    }\r\n\r\n    // VIEW FUNCTIONS FOR HELPING THE USER AND CLIENT INTERFACE\r\n\r\n    /**\r\n     * @notice Helper function to fetch the commissions earned by the admin\r\n     */\r\n    function getAdminCommissionDetails()\r\n        external\r\n        view\r\n        returns (uint256 adminCommission)\r\n    {\r\n        return totalAdminCommission;\r\n    }\r\n\r\n    /**\r\n     * @notice Helper function to to check whether the address is a staker\r\n     */\r\n    function checkUserStakerStatus(address _user) external view {\r\n        StakeDeposit memory stakeDeposit = _stakeDeposits[_user];\r\n        require(stakeDeposit.exists, \"Staking: User not Staker\");\r\n    }\r\n\r\n    /**\r\n     * @notice Helper function to to get details of the staker\r\n     * @param account Address of the stakers account\r\n     */\r\n    function getStakeDetails(\r\n        address account\r\n    ) external view returns (uint256 stakeDeposit, uint256 rewards) {\r\n        require(\r\n            _stakeDeposits[account].exists &&\r\n                _stakeDeposits[account].amount != 0,\r\n            \"Staking: This account doesn't have a stake deposit\"\r\n        );\r\n\r\n        StakeDeposit memory s = _stakeDeposits[account];\r\n\r\n        return (s.amount, calculateRewards(s));\r\n    }\r\n}\r\n",
  "sourcePath": "/mnt/c/Users/HP/Desktop/StakingContract/contracts/Staking.sol",
  "compiler": {
    "name": "solc",
    "version": "0.8.17+commit.8df45f5f.Emscripten.clang"
  },
  "schemaVersion": "3.4.11",
  "updatedAt": "2023-02-16T12:05:50.452Z",
  "networkType": "ethereum",
  "devdoc": {
    "kind": "dev",
    "methods": {
      "getStakeDetails(address)": {
        "params": {
          "account": "Address of the stakers account"
        }
      },
      "owner()": {
        "details": "Returns the address of the current owner."
      },
      "renounceOwnership()": {
        "details": "Leaves the contract without owner. It will not be possible to call `onlyOwner` functions anymore. Can only be called by the current owner. NOTE: Renouncing ownership will leave the contract without an owner, thereby removing any functionality that is only available to the owner."
      },
      "setTokenAddress(address)": {
        "details": "only the owner can call this function",
        "params": {
          "_token": "Address of the staking token"
        }
      },
      "stake(uint256)": {
        "params": {
          "_amount": "Amount of staking token the user wish to stake"
        }
      },
      "transferOwnership(address)": {
        "details": "Transfers ownership of the contract to a new account (`newOwner`). Can only be called by the current owner."
      },
      "unstake(uint256)": {
        "params": {
          "_withdrawAmount": "Amount of staking token the user wish to unstake"
        }
      }
    },
    "version": 1
  },
  "userdoc": {
    "kind": "user",
    "methods": {
      "checkUserStakerStatus(address)": {
        "notice": "Helper function to to check whether the address is a staker"
      },
      "claimRewards(address)": {
        "notice": "This function is used to claim rewards of staked tokens"
      },
      "getAdminCommissionDetails()": {
        "notice": "Helper function to fetch the commissions earned by the admin"
      },
      "getStakeDetails(address)": {
        "notice": "Helper function to to get details of the staker"
      },
      "setTokenAddress(address)": {
        "notice": "This function is used to set staking token address"
      },
      "stake(uint256)": {
        "notice": "This function is used to deposit and stake the token"
      },
      "unstake(uint256)": {
        "notice": "This function is used to execute withdrawal of staked tokens"
      }
    },
    "version": 1
  }
}